:020000040800F2
:10000000FFFF0120F14C0008414D0008414D000860
:10001000414D0008414D0008414D0008000000001E
:10002000000000000000000000000000414D00083A
:10003000414D000800000000414D0008BD160008B9
:10004000414D0008414D0008414D0008414D000858
:10005000414D0008414D0008414D0008414D000848
:10006000ED160008414D0008414D0008414D0008C3
:10007000414D0008414D0008414D0008414D000828
:10008000414D0008414D0008AD160008414D0008E3
:10009000414D0008414D0008414D0008414D000808
:1000A000414D0008414D0008414D0008414D0008F8
:1000B000414D0008414D0008414D0008414D0008E8
:1000C000414D0008414D0008414D0008414D0008D8
:1000D000414D0008414D0008414D0008414D0008C8
:1000E000414D0008414D0008414D0008414D0008B8
:1000F000414D0008414D0008414D0008414D0008A8
:10010000414D0008414D0008414D0008414D000897
:10011000414D0008414D0008414D0008414D000887
:10012000414D0008414D0008414D0008414D000877
:10013000414D0008414D0008414D0008414D000867
:10014000414D0008414D0008414D0008414D000857
:10015000414D0008414D0008414D0008414D000847
:10016000414D0008414D0008414D0008414D000837
:10017000414D0008414D0008414D000800000000BD
:08018000414D0008414D00084B
:1001880010B5054C237833B9044B13B10448AFF3C9
:1001980000800123237010BD4006002000000000ED
:1001A800FC2C0108084B10B51BB108480849AFF3EF
:1001B80000800848036803B910BD074B002BFBD02B
:1001C800BDE81040184700BF00000000FC2C0108E3
:1001D800440600204006002000000000844641EA52
:1001E800000313F003036DD1403A41D351F8043BA7
:1001F80040F8043B51F8043B40F8043B51F8043BF9
:1002080040F8043B51F8043B40F8043B51F8043BE8
:1002180040F8043B51F8043B40F8043B51F8043BD8
:1002280040F8043B51F8043B40F8043B51F8043BC8
:1002380040F8043B51F8043B40F8043B51F8043BB8
:1002480040F8043B51F8043B40F8043B51F8043BA8
:1002580040F8043B51F8043B40F8043B51F8043B98
:1002680040F8043B51F8043B40F8043B403ABDD207
:10027800303211D351F8043B40F8043B51F8043BA9
:1002880040F8043B51F8043B40F8043B51F8043B68
:1002980040F8043B103AEDD20C3205D351F8043B38
:1002A80040F8043B043AF9D2043208D0D2071CBF04
:1002B80011F8013B00F8013B01D30B88038060462D
:1002C800704700BF082A13D38B078DD010F00303A3
:1002D8008AD0C3F10403D21ADB071CBF11F8013B13
:1002E80000F8013B80D331F8023B20F8023B7BE762
:1002F800043AD9D3013A11F8013B00F8013BF9D28D
:100308000B7803704B7843708B7883706046704726
:1003180080B483B000AF786039607B68032B23D842
:1003280001A252F823F000BF410300084D03000862
:1003380059030008650300083B6840F6F8221A6074
:100348000D4B12E03B6840F2CF121A600B4B0CE0E9
:100358003B6840F2CF121A60094B06E03B6841F651
:10036800B8021A60074B00E0002318460C37BD4658
:100378005DF8047B704700BF7C2E010874390108C2
:10038800443B0108143D010880B588B000AF78608F
:100398007B681B681D2B03D0262B00F02581BBE151
:1003A8007B685B68FB61F869B54904F093FD7B687D
:1003B8005B68184640F6010107F0D6F9F861F8695C
:1003C800B04906F0DDFDF869AF4906F001FE7B682B
:1003D8005B68184640F6020107F0C6F9F861F8694B
:1003E800AA4906F0CDFDF869A74906F0F1FD7B683A
:1003F8005B68184640F6030107F0B6F9F861F8693A
:10040800A34906F0BDFDF869A24906F0E1FD7B6845
:100418005B68184640F6040107F0A6F9F861F86928
:100428009D4906F0ADFDF8699A4906F0D1FD7B6853
:100438005B68184640F6050107F096F9F861F86917
:10044800964906F09DFDF869924906F0C1FD7B6862
:100458005B68184640F6060107F086F9F861F86906
:100468008F4906F08DFDF8698E4906F0B1FD7B686D
:100478005B68184640F6070107F076F9F861F869F5
:10048800894906F07DFDF869864906F0A1FD7B687B
:100498005B68184640F6080107F066F9F861F869E4
:1004A800824906F06DFDF869814906F091FD7B6887
:1004B8005B68184640F6090107F056F9F86107F13C
:1004C8000C0300201946FFF723FFB861FB68F869A1
:1004D800B9691A4606F03CF87B685B68184640F62E
:1004E8000A0107F041F9F861F869724904F045FF1B
:1004F800F8690E2104F02FFFF8696F4904F065FFD1
:10050800F869002104F015FF7B685B68184640F61F
:100518000B0107F029F9F861F869684904F055FFFB
:10052800F8690C2104F017FFF869654904F025FF04
:10053800F869002104F0FDFE7B685B68184640F608
:100548000C0107F011F9F861F8695C4904F03DFF06
:10055800F8695C4904F011FFF8690E2104F0FBFE0C
:10056800F869002104F0E5FE7B685B68184640F6F0
:100578000D0107F0F9F8F86107F10C03012019469D
:10058800FFF7C6FEB861FB68F869B9691A4605F055
:10059800DFFF7B685B68184640F60E0107F0E4F859
:1005A800F86107F10C0302201946FFF7B1FEB861A4
:1005B800FB68F869B9691A4605F0CAFF7B685B6889
:1005C80018464FF4016107F0CFF8F86107F10C0302
:1005D80003201946FFF79CFEB861FB68F869B96902
:1005E8001A4605F0B5FF9DE07B689B68184607F042
:1005F8007BF878617B68DB683B617B69A3F6010364
:100608000E2B00F28E8001A252F823F0510600084A
:100618005F0600086D0600087B060008D106000882
:10062800DF060008ED060008FB0600082B07000897
:100638002B0700082B0700082B0700082B070008CA
:100648002B070008090700083B69012B01D0022B82
:1006580000E000BF5FE03B69012B01D0022B00E006
:1006680000BF58E03B69012B01D0022B00E000BF1E
:1006780051E03B69012B01D0022B00E000BF4AE0AA
:10068800C0C0C000C42D010804DC0108C82D010841
:10069800CC2D0108E00F0208D42D0108DC2D01083B
:1006A800E42D010844EE0108EC2D0108F02D0108A5
:1006B800A4FA0108F82D010874D001087420020872
:1006C800002E0108082E01083B69012B01D0022BDE
:1006D80000E000BF1FE03B69012B01D0022B00E0C6
:1006E80000BF18E03B69012B01D0022B00E000BFDE
:1006F80011E03B69012B01D0022B00E000BF0AE0AA
:100708003B69022B03D0052B03D0012B02E000BF6D
:1007180000E000BF00BF04E0786808F051F900BFAE
:1007280000E000BF2037BD4680BD00BF90B585B052
:1007380002AF07F01DF8044600230093002301933D
:1007480005481121054A234606F025F978607B689B
:1007580018460C37BD4690BDCC55010891030008DA
:1007680080B483B000AF786039607B68002B05D116
:100778003B6847F21E721A60044B00E000231846DB
:100788000C37BD465DF8047B704700BFA8570108C9
:1007980080B586B000AF78607B681B681D2B1DD1C3
:1007A8007B685B687B6178696FF07F4104F092FB3E
:1007B8007B685B68184640F6020106F0D5FF786151
:1007C80007F10C0300201946FFF7CAFF3861FB68E0
:1007D800786939691A4605F0BBFE03E0786808F0C5
:1007E800EFF800BF1837BD4680BD00BF90B585B093
:1007F80002AF06F0BDFF04460023009300230193D7
:1008080005480321054A234606F0C5F878607B6849
:1008180018460C37BD4690BDC8CE01089907000898
:1008280080B500AF02484FF400410EF0C3F880BD18
:100838005C06002080B483B000AF0346FB804FF015
:10084800C042FB8813800C37BD465DF8047B7047B7
:1008580080B483B000AF0346FB80044AFB88138052
:100868000C37BD465DF8047B704700BF000002608E
:1008780080B483B000AF7860396005E007497B68D1
:100888009A1C7A601B880B803B685A1E3A60002BC2
:10089800F4D10C37BD465DF8047B70470000026058
:1008A80080B483B000AF7860396006E07B689A1C3A
:1008B8007A60074A128892B21A803B685A1E3A60D8
:1008C800002BF3D10C37BD465DF8047B704700BFA1
:1008D8000000026080B5A0B000AF07F168030022F5
:1008E8001A60043300221A60043300221A600433A9
:1008F80000221A60043300221A6004333B4668223F
:100908001846002112F0A4F81648174900220023BF
:100918000CF0C2FCF8670020F0214FF4A0720AF036
:100928002EFA0020F0214FF4A0720AF011FA0623E3
:100938003B6707F16803F86F19460AF0A8F90B4BF3
:100948003B620B4B7B620B4BFB620B4BFB633B46E7
:10095800F86F1946094A0A4B0AF0B7F98037BD46BD
:1009680080BD00BF202B0208C42C02083D080008E7
:100978005908000879080008A9080008FD9F000820
:1009880099A6000880B487B000AFF860B9607A60B3
:10099800BB68012B01D1002303E04FF0FF337B61DB
:1009A8007B6918461C37BD465DF8047B704700BF5D
:1009B80080B584B000AF194B194A1A60174B002252
:1009C8005A60164B00229A60144B00221A61134B8E
:1009D80000229A61114B00225A62104B0022DA62FF
:1009E8000E4B0022DA600D4B01221A620B4B0022DB
:1009F800DA610A4B01225A61084800F057FF0823C0
:100A08003B6001237B600023BB603B4603481946DB
:100A180001F0C2F81037BD4680BD00BF0C89002028
:100A28000020014080B588B000AF78607B681B6803
:100A38000F4A934219D10F4A0E4B5B6C43F48073F3
:100A480053640123FB6003233B6100237B6107F1AF
:100A58000C030948194601F0C1FB122002210022AB
:100A680001F05EFB122001F077FB2037BD4680BD08
:100A780000200140003802400004024080B500AF69
:100A8800034B044A1A60024801F08CFB80BD00BF8A
:100A9800508900200030024080B483B000AF7860F5
:100AA8007B681B68064A934205D1064A054B1B6BB7
:100AB80043F4805313630C37BD465DF8047B7047DD
:100AC800003002400038024080B588B000AF234BA8
:100AD8004FF020421A60214B214A5A601F4B0022D6
:100AE8009A601E4B0022DA601C4B00221A611B4BD5
:100AF80010225A61194B00229A61184B0022DA61C0
:100B0800164B00221A62154B00225A62134B4FF4FF
:100B180080529A62114B0022DA62104B00221A634B
:100B28000E4B00225A630D4B00229A6302237B600E
:100B38000F23BB600523FB6001233B6110237B610E
:100B48001123BB610023FB613B1D044819460022A9
:100B580003F0A2FA2037BD4680BD00BF58890020A7
:100B6800040100A080B586B000AF184B1B68002BAD
:100B780028D1164B01221A60154A154B9B6B43F07E
:100B8800010393634FF680737B600223BB600023ED
:100B9800FB6000233B610C237B613B1D0D4819461C
:100BA80001F01CFB4CF6B3737B600223BB6000238F
:100BB800FB6000233B610C237B613B1D0648194603
:100BC80001F00CFB1837BD4680BD00BF5C860020D5
:100BD8000038024000100240000C024080B582B08C
:100BE80000AF7860FFF7BEFF0837BD4680BD00BF85
:100BF80080B586B002AF0346FB710023FB7300BFCC
:100C08001D4801F0D7FF0346012BF9D11B4AFB7998
:100C180013704FF47A73009317487021174A012311
:100C280001F094FD0346002B05D015484FF40071E0
:100C3800012201F069FC00BF0F4801F0BBFF034629
:100C4800012BF9D14FF47A7300930B4870210D4AA8
:100C5800012301F02FFE0346002B04D00A484FF46D
:100C6800805101F069FC074B1B78FB73FB7B18462E
:100C78001037BD4680BD00BFC4890020A48900206C
:100C880000000240A0890020000C024080B586B018
:100C980002AF03460A46FB711346BB710023FB7380
:100CA80000BF114801F086FF0346012BF9D10F4A16
:100CB800FB7913700D4ABB7953704FF47A73009324
:100CC80009487021094A022301F040FD0346002B20
:100CD80005D007484FF40071012201F015FCFB7B99
:100CE80018461037BD4680BDC4890020A48900205D
:100CF8000000024080B582B000AF0346FB7100F0EF
:100D080053FCFB79002B01D18023FB71FB798020F8
:100D18001946FFF7BBFFA4200121FFF7B7FFA82062
:100D2800FFF766FF03461A46114B9A75A320FFF793
:100D38005FFF03461A460E4BDA75A620FFF758FFE9
:100D480003461A460A4B1A768820FFF751FF0346D6
:100D58001A46074B5A768020FFF74AFF03461A4681
:100D6800034B9A7600F01CF80837BD4680BD00BFDB
:100D7800A889002080B582B000AF0220FFF738FFB5
:100D88000346FB71FB79012B02D0FB79022B01D1C1
:100D9800FB7900E0002318460837BD4680BD00BF38
:100DA80080B586B000AF0023FB750FE0FB7D1846C9
:100DB800FFF71EFF0346BB75FB7D07F118021344BE
:100DC800BA7D03F8142CFB7D0133FB75FB7D082BE2
:100DD800ECD97A79334B1A70BA79324B5A70314B55
:100DE8005B78022B1BD92F4B00225A702D4B002207
:100DF8009A802C4B00221A812A4B00229A72294B86
:100E08000022DA72274B0022DA81264B00225A820E
:100E1800244B00221A75234B00225A753FE0FB79B8
:100E28009BB203F00F039AB21E4B9A801D4B9B880E
:100E38001B029AB21B4B9A801A4B9A883B7A9BB238
:100E480013439AB2174B9A80FB791B09DBB203F064
:100E58000303DAB2134B9A707B7A9BB203F00F0349
:100E68009AB2104B1A810F4B1B891B029AB20D4B79
:100E78001A810C4B1A89BB7A9BB213439AB2094B5D
:100E88001A817B7A1B09DBB203F00303DAB2054B44
:100E98009A71FA7A034B9A723A7B024BDA721837D4
:100EA800BD4680BDA889002080B586B000AF314A14
:100EB800304B1B6B43F0100313632E4A2D4B1B6BF7
:100EC80043F0800313632B4A2A4B1B6B43F0040344
:100ED8001363284A274B1B6B43F002031363254A0D
:100EE800244B1B6B43F008031363224A214B1B6BF3
:100EF80043F00103136304237B601F4BBB60002393
:100F0800FB603B1D1D48194601F068F908237B600A
:100F18000123BB600023FB6000233B613B1D174896
:100F2800194601F05BF902237B600123BB600023B3
:100F3800FB6000233B613B1D1148194601F04EF947
:100F48004FF400737B600123BB600023FB60002328
:100F58003B613B1D0B48194601F040F9082001216F
:100F6800002201F0DDF8082001F0F6F81837BD4638
:100F780080BD00BF00380240000021100008024078
:100F8800000402400000024080B500AF0F4B104A39
:100F98001A600E4B0F4A5A600C4B00229A600B4B9A
:100FA8000022DA60094B4FF480421A61074B002295
:100FB8005A61064B00229A61044B0022DA61034B06
:100FC80000221A62014801F0EBFA80BDC4890020B2
:100FD80000540040801A060080B588B000AF7860E1
:100FE8007B681B680E4A934216D10E4A0D4B1B6C48
:100FF80043F4001313644FF41073FB6012233B6136
:1010080001237B610023BB610423FB6107F10C030F
:101018000548194601F0E2F82037BD4680BD00BFFB
:1010280000540040003802400004024090B482B0EE
:1010380000AF0446084611461A462346FB8003467D
:10104800BB800B467B8013463B804FF0C0432A226F
:101058001A80164B00221A80144BFA881A80134BF8
:1010680000221A80114B7A881A804FF0C0432B2235
:101078001A800E4AB7F904301B129BB29BB2138038
:101088000A4BBA88D2B292B21A80084AB7F900302D
:101098001B129BB29BB21380044B3A88D2B292B215
:1010A8001A800837BD4690BC704700BF0000026038
:1010B80090B585B000AF0446084611461A46234647
:1010C800FB800346BB800B467B8013463B807B88B6
:1010D8003A8802FB03F3FB60F888B988FA887B88B2
:1010E80013449BB2013B9BB29CB2BA883B88134421
:1010F8009BB2013B9BB29BB200B209B222B21BB2B7
:10110800FFF794FF4FF0C0432C221A8002E0054AF3
:101118003B8C1380FB685A1EFA60002BF7D11437FA
:10112800BD4690BD0000026080B582B002AF4FF0AE
:10113800C04311221A80052000F0A2FB4FF0C043E3
:10114800CF221A808E4B00221A808D4BC3221A8020
:101158008B4B30221A804FF0C043ED221A80884B07
:1011680064221A80864B03221A80854B12221A8029
:10117800834B81221A804FF0C043E8221A80804BAB
:1011880085221A807E4B10221A807D4B79221A8084
:101198004FF0C043CB221A80794B39221A80784B02
:1011A8002C221A80764B00221A80754B34221A8022
:1011B800734B02221A804FF0C043F7221A80704BFB
:1011C80020221A804FF0C043EA221A806C4B00227A
:1011D8001A806B4B00221A804FF0C043C0221A803D
:1011E800674B22221A804FF0C043C1221A80644BF9
:1011F80011221A804FF0C043C5221A80604B3D224D
:101208001A805F4B20221A804FF0C043C7221A80F1
:101218005B4BAA221A804FF0C04336221A80584BE3
:1012280088221A804FF0C0433A221A80544B552224
:101238001A804FF0C043B1221A80514B00221A8005
:101248004F4B13221A804FF0C043B6221A804C4BE2
:101258000A221A804A4BA2221A804FF0C043F62273
:101268001A80474B01221A80454B30221A804FF0D2
:10127800C043F2221A80424B00221A804FF0C0432A
:1012880026221A803E4B01221A804FF0C043E022EA
:101298001A803B4B0F221A80394B3F221A80384B59
:1012A8002F221A80364B0C221A80354B10221A80B6
:1012B800334B0A221A80324B53221A80304BD522E4
:1012C8001A802F4B40221A802D4B0A221A802C4B51
:1012D80013221A802A4B03221A80294B08221A80CB
:1012E800274B03221A80264B00221A804FF0C04356
:1012F800E1221A80224B00221A80214B00221A80F8
:101308001F4B10221A801E4B03221A801C4B0F22DF
:101318001A801B4B05221A80194B2C221A80184B55
:10132800A2221A80164B3F221A80154B05221A80DA
:10133800134B0E221A80124B0C221A80104B3722A4
:101348001A800F4B3C221A800D4B0F221A804FF047
:10135800C04311221A800A2000F092FA4FF0C043CD
:1013680029221A800A2000F08BFA0023009300201B
:101378000021F0224FF4A073FFF79AFEBD4680BD0E
:101388000000026080B500AF00F022FA00F040F8DB
:10139800FFF78AFDFFF70CFBFFF770FBFFF794FBE5
:1013A800FFF7F2FD00F012F900F0ACF9134A134B05
:1013B8001B6B43F48053136300F0E2F80020FFF73F
:1013C80099FC0CF045F80E4805F0B0FC0D4804F007
:1013D800BBFB0D4804F0B2FE00F064F8FFF7A6F975
:1013E80002460A4B1A60094B1B68184605F0BFFEF7
:1013F80000F080F80BF076F8FAE700BF00380240FA
:101408003D6A00088D5500087D5E0008008A0020AE
:1014180080B596B000AF204A1F4B1B6C43F0805339
:1014280013641E4A1D4B1B6843F440431360012399
:10143800BB620123FB6202233B644FF480037B649D
:101448000823BB644FF4A873FB6402233B6507239E
:101458007B6507F12803184601F0B4FD0D237B6175
:101468000223BB610023FB614FF4A0533B624FF49E
:1014780080537B6207F114031846052101F0FAFF37
:1014880002237B60064B3B613B1D184602F028FA9D
:101498005837BD4680BD00BF00380240007000408C
:1014A8000003080080B584B000AFFFF79FF9B8606B
:1014B800B86805F05CFEB86840F6010106F054F91A
:1014C80078600023FB730CE0FB7B7868194604F016
:1014D8006DFF0BF007F80A2000F0D2F9FB7B01330F
:1014E800FB73FB7B632BEFD9B86806F08FFE1037D0
:1014F800BD4680BD80B500AF1D4B1B78DBB203F045
:101508000103002B1BD01A4B1B78DBB223F001031D
:10151800DAB2174B1A70FFF743FC164B1B891A46B1
:10152800154B1A60134B9B88C3F1F003124A5360A2
:10153800114B01221A7210480AF08EFD16E00F4B6B
:101548001B78DBB2092B11D90C4B00221A70FFF75C
:1015580011FC0346002B03D0074B01221A7202E04C
:10156800054B00221A7204480AF076FD80BD00BFC0
:10157800A6890020A8890020048A00209C890020D0
:1015880080B500AF07480221002200F0BDFF05200A
:1015980000F076F903480221012200F0B5FFFFF7B9
:1015A800C3FD80BD0004024080B500AF0648082195
:1015B800002200F0A9FF052000F062F90248082186
:1015C800012200F0A1FF80BD0008024080B586B06E
:1015D80000AF214B214A1A601F4B00225A601E4B54
:1015E8007F229A601C4BFF22DA601B4B00221A6193
:1015F800194B00225A61184B00229A61164802F0D2
:1016080059FA00233B7100237B710023BB7100232F
:10161800BB6000233B7300233B6100237B613B1DC0
:101628000D481946002202F0BDFA01233B70012340
:101638007B700123BB700023FB703B4606481946AC
:10164800002202F075FB04480021042202F0B6FCD7
:101658001837BD4680BD00BF108A00200028004012
:1016680080B483B000AF78607B681B68054A9342FA
:1016780002D1054B01221A600C37BD465DF8047B88
:10168800704700BF002800403C0E474280B500AFBD
:10169800052000F03BFD4FF0FF300021002200F054
:1016A8003FFD80BD80B500AF014800F029F980BD3D
:1016B8000C89002080B500AF00F0C8F800F066FD86
:1016C800064B1B680133054A1360054B1B78DBB2D8
:1016D8000133DAB2024B1A7080BD00BF6C8A002059
:1016E8009C89002080B500AF042000F037FF044B30
:1016F8001B78DBB243F00103DAB2014B1A7080BDEC
:10170800A689002080B58CB000AF184B184A1A6023
:10171800164BA8225A60154B00229A60134B4FF4BF
:101728007A72DA60114B00221A61104802F0F6FC56
:101738004FF480533B6207F120030C48194602F02E
:101748000DFE0A4802F012FD60237B60FA23BB609D
:101758000023FB6000237B613B1D044819460022DF
:1017680002F036FD3037BD4680BD00BF308A00200C
:101778000040014080B588B000AF78607B681B6886
:101788000D4A934215D10D4A0C4B5B6C43F48033E0
:1017980053642023FB6002233B6100237B61002309
:1017A800BB610323FB6107F10C030548194600F0F0
:1017B80015FD2037BD4680BD00400140003802407D
:1017C8000010024080B400AFBD465DF8047B70474E
:1017D80080B500AF0E4A0E4B1B6843F400731360CC
:1017E8000B4A0B4B1B6843F480631360084A084B91
:1017F8001B6843F480731360032000F087FC00200B
:1018080000F008F8FFF742FF0023184680BD00BF2C
:10181800003C024080B582B000AF786002F00EF85C
:101828000246094BA3FB02239B09184600F0A2FCC1
:101838004FF0FF307968002200F072FC0023184650
:101848000837BD4680BD00BFD34D621080B400AFDD
:10185800044B1B680133034A1360BD465DF8047BE3
:10186800704700BF6086002080B400AF034B1B6840
:101878001846BD465DF8047B704700BF60860020AF
:1018880080B584B000AF78600023FB60FFF7ECFF01
:10189800F86000BFFFF7E8FF0246FB68D21A7B68D2
:1018A8009A42F7D31037BD4680BD00BF80B582B0DD
:1018B80000AF78607B68002B01D101231BE07B68B7
:1018C80093F83D30DBB2002B02D17868FFF7AAF815
:1018D8007B68022283F83D20786800F063FA7B6811
:1018E80000221A647B68012283F83D207B6800226D
:1018F80083F83C20002318460837BD4680BD00BF4A
:1019080080B584B000AF78600023FB600023BB6023
:101918007B681B681B6803F00203002B14BF0123BC
:101928000023DBB2FB607B681B685B6803F0200365
:10193800002B14BF01230023DBB2BB60FB68002B24
:1019480057D0BB68002B54D07B6893F83D30DBB28E
:10195800252B04D17B68352283F83D2003E07B6882
:10196800152283F83D207B689B69002B39D17B6861
:10197800DB6A002B35D17B685B69002B10D17B6853
:101988001B687A681268526822F020025A607B68E5
:101998001B687A681268526822F080625A6020E0F8
:1019A8007B685B6B002B03D17B681A6A7B685A6380
:1019B8007B685B6B5A1E7B685A637B685B6B002B8A
:1019C8000FD17B681B687A681268526822F020027F
:1019D8005A607B681B687A681268526822F08062D5
:1019E8005A60786800F0BAF87B681B686FF00202EA
:1019F8001A607B681B681B6803F00403002B14BF84
:101A080001230023DBB2FB607B681B685B6803F083
:101A18008003002B14BF01230023DBB2BB60FB68EB
:101A2800002B41D0BB68002B3ED07B6893F83D303B
:101A3800DBB2152B04D17B68352283F83D2003E007
:101A48007B68252283F83D207B681B685B6803F46C
:101A58008063002B0CBF01230023DBB2FB607B6893
:101A68001B689B6803F44013002B0CBF0123002361
:101A7800DBB2BB607B689B69002B02D0FB68002B44
:101A88000AD0BB68002B07D07B681B687A6812688D
:101A9800526822F080025A60786800F063FA7B6826
:101AA8001B686FF004021A607B681B681B6803F0F0
:101AB8000103002B14BF01230023DBB2FB607B680A
:101AC8001B685B6803F04003002B14BF012300234D
:101AD800DBB2BB60FB68002B0ED0BB68002B0BD0C1
:101AE8007B68062283F83D207B681B686FF0010243
:101AF8001A60786800F03CF87B681B681B6803F084
:101B08002003002B14BF01230023DBB2FB607B689A
:101B18001B685B6803F08063002B14BF012300235C
:101B2800DBB2BB60FB68002B14D0BB68002B11D064
:101B38007B68042283F83D207B681B6C43F001021C
:101B48007B681A647B681B686FF020021A607868EB
:101B580000F018F81037BD4680BD00BF80B483B0D0
:101B680000AF78600C37BD465DF8047B704700BF56
:101B780080B483B000AF78600C37BD465DF8047B55
:101B8800704700BF80B483B000AF78600C37BD46A3
:101B98005DF8047B704700BF90B482B000AF7860F6
:101BA80039607B6893F83C30012B01D10223EFE0C8
:101BB8007B68012283F83C203B681B68092B26D9E7
:101BC8007B681A687B681B68D9683B681B689BB28E
:101BD800184603465B0003441E3B18460723834010
:101BE800DB430B40D3607B681A687B681B68D96845
:101BF8003B6898683B681B689BB21C4623465B00A1
:101C080023441E3B00FA03F30B43D36023E07B68B5
:101C18001A687B681B6819693B681B689BB2184681
:101C280003465B000344184607238340DB430B400D
:101C380013617B681A687B681B6819693B68986838
:101C48003B681B689BB21C4623465B00234400FA92
:101C580003F30B4313613B685B68062B24D87B684E
:101C680019687B681B68586B3B685A6813469B0069
:101C78001344053B1A461F239340DB4303404B6341
:101C88007B6819687B681B68586B3B681B689BB24C
:101C98001C463B685A6813469B001344053B04FAEC
:101CA80003F303434B634CE03B685B680C2B24D87D
:101CB8007B6819687B681B68186B3B685A68134611
:101CC8009B001344233B1A461F239340DB430340E6
:101CD8000B637B6819687B681B68186B3B681B681B
:101CE8009BB21C463B685A6813469B001344233B2F
:101CF80004FA03F303430B6323E07B6819687B68EA
:101D08001B68D86A3B685A6813469B001344413BDA
:101D18001A461F239340DB430340CB627B68196854
:101D28007B681B68D86A3B681B689BB21C463B688B
:101D38005A6813469B001344413B04FA03F30343D8
:101D4800CB627B681B68154A934209D13B681B68C4
:101D5800122B05D1124A124B5B6843F4800353607F
:101D68007B681B680D4A93420DD13B681B68102B9A
:101D780003D03B681B68112B05D1094A084B5B68E7
:101D880043F4000353607B68002283F83C2000235F
:101D980018460837BD4690BC704700BF0020014078
:101DA8000023014080B483B000AF78606C4A6C4B6C
:101DB8005B6823F4403353606949694B5A687B6810
:101DC8005B6813434B607B681B687A6812685268CB
:101DD80022F480725A607B681B687A6812685168BE
:101DE8007A68126912020A435A607B681B687A682B
:101DF8001268526822F040725A607B681B687A68E1
:101E0800126851687A6892680A435A607B681B684E
:101E18007A681268926822F400629A607B681B688C
:101E28007A68126891687A68D2680A439A607B680F
:101E38001B687A681268926822F070629A607B6800
:101E48001B687A68126891687A68126B0A439A600C
:101E58007B681B687A681268926822F040529A6020
:101E68007B681B687A68126891687A68D26A0A4344
:101E78009A607B681B687A681268926822F002028E
:101E88009A607B681B687A68126891687A689269B8
:101E980052000A439A607B685B6A002B1BD07B6800
:101EA8001B687A681268526842F400625A607B685C
:101EB8001B687A681268526822F460425A607B682C
:101EC8001B687A68126851687A68926A013A520304
:101ED8000A435A6007E07B681B687A681268526890
:101EE80022F400625A607B681B687A681268D26ABA
:101EF80022F47002DA627B681B687A681268D16A19
:101F08007A68126A013A12050A43DA627B681B682A
:101F18007A681268926822F400729A607B681B687B
:101F28007A68126891687A68D26952020A439A609C
:101F38007B681B687A681268926822F480629A60EB
:101F48007B681B687A68126891687A68526992029D
:101F58000A439A600C37BD465DF8047B704700BFA2
:101F68000023014080B483B000AF78600C37BD46D1
:101F78005DF8047B704700BF80B485B000AF78601F
:101F88007B6803F00703FB600C4BDB68BB60BA6837
:101F98004FF6FF031340BB60FB681A02BB6813438C
:101FA80043F0BF6343F40033BB60044ABB68D360AB
:101FB8001437BD465DF8047B704700BF00ED00E0B4
:101FC80080B400AF044BDB6803F4E0631B0A1846D7
:101FD800BD465DF8047B704700ED00E080B483B037
:101FE80000AF0346FB71084997F907305B09FA7996
:101FF80002F01F02012000FA02F241F823200C37F8
:10200800BD465DF8047B704700E100E080B483B012
:1020180000AF03463960FB7197F90730002B0BDAE4
:102028000D49FB7903F00F03043B3A68D2B2120161
:10203800D2B20B441A7609E0084997F907303A6892
:10204800D2B21201D2B20B4483F800230C37BD463A
:102058005DF8047B704700BF00ED00E000E100E0A0
:1020680080B489B000AFF860B9607A60FB6803F0AB
:102078000703FB61FB69C3F10703042B28BF042393
:10208800BB61FB690433062B02D9FB69033B00E003
:1020980000237B61BB69012202FA03F3013B1A4664
:1020A800BB681A407B699A407B69012101FA03F3F6
:1020B800013B19467B680B40134318462437BD463D
:1020C8005DF8047B704700BF80B582B000AF7860D0
:1020D8007B68013BB3F1807F01D301230FE00A4AFB
:1020E8007B68013B53604FF0FF300F21FFF78EFFF5
:1020F800054B00229A60044B07221A6000231846F9
:102108000837BD4680BD00BF10E000E080B582B052
:1021180000AF78607868FFF72FFF0837BD4680BDAD
:1021280080B586B000AF0346B9607A60FB730023C0
:102138007B61FFF745FF78617869B9687A68FFF7CE
:102148008FFF024697F90F3018461146FFF75EFFDA
:102158001837BD4680BD00BF80B582B000AF0346CA
:10216800FB7197F907301846FFF738FF0837BD4667
:1021780080BD00BF80B582B000AF78607868FFF797
:10218800A3FF034618460837BD4680BD80B500AF9B
:1021980000F002F880BD00BF80B400AFBD465DF816
:1021A800047B704780B582B000AF78607B68002BF5
:1021B80001D101230EE07B685B79DBB2002B02D1F1
:1021C8007868FEF769FC7B6802225A717B680122F5
:1021D8005A71002318460837BD4680BD80B487B0C1
:1021E80000AF786039600023FB600023BB600023E8
:1021F8003B6100237B6165E17B69012202FA03F3FD
:10220800FB603B681A68FB681340BB60BA68FB68F0
:102218009A4240F054813B685B68022B03D03B68CC
:102228005B68122B22D17B69DA087B68083253F885
:1022380022303B617B6903F007039B001A460F239A
:102248009340DB433A6913403B613B681B697A69F9
:1022580002F00702920093403A6913433B617B699D
:10226800DA087B680832396943F822107B681B68F2
:102278003B617B695B001A4603239340DB433A6961
:1022880013403B613B685B6803F003037A695200C3
:1022980093403A6913433B617B683A691A603B682B
:1022A8005B68012B0BD03B685B68022B07D03B684F
:1022B8005B68112B03D03B685B68122B2FD17B68BE
:1022C8009B683B617B695B001A4603239340DB43B1
:1022D8003A6913403B613B68DB687A695200934076
:1022E8003A6913433B617B683A699A607B685B682B
:1022F8003B617B69012202FA03F3DB433A6913402D
:102308003B613B685B6803F010031A097B6902FABA
:1023180003F33A6913433B617B683A695A607B6807
:10232800DB683B617B695B001A4603239340DB4310
:102338003A6913403B613B689B687A695200934055
:102348003A6913433B617B683A69DA603B685B68CA
:1023580003F08053002B00F0B2805F4A5E4B5B6C49
:1023680043F4804353645D4A7B699B08023352F807
:1023780023303B617B6903F003039B001A460F235C
:102388009340DB433A6913403B617B68544A93426C
:1023980031D07B68534A93422BD07B68524A934290
:1023A80025D07B68514A93421FD07B68504A93429C
:1023B80019D07B684F4A934213D07B684E4A9342A8
:1023C8000DD07B684D4A934207D07B684C4A9342B4
:1023D80001D1082310E009230EE007230CE00623AF
:1023E8000AE0052308E0042306E0032304E00223AF
:1023F80002E0012300E000237A6902F00302920060
:1024080093403A6913433B6134497B699B08023323
:102418003A6941F823203B4B1B683B61BB68DB43AF
:102428003A6913403B613B685B6803F48033002BD7
:1024380003D03A69BB6813433B61324A3B69136076
:10244800304B5B683B61BB68DB433A6913403B61D7
:102458003B685B6803F40033002B03D03A69BB6820
:1024680013433B61274A3B695360264B9B683B619A
:10247800BB68DB433A6913403B613B685B6803F424
:102488008013002B03D03A69BB6813433B611D4A94
:102498003B6993601B4BDB683B61BB68DB433A6974
:1024A80013403B613B685B6803F40013002B03D0C7
:1024B8003A69BB6813433B61124A3B69D3607B6945
:1024C80001337B617B690F2B7FF696AE1C37BD46C7
:1024D8005DF8047B704700BF0038024000380140B7
:1024E800000002400004024000080240000C0240C4
:1024F800001002400014024000180240001C024074
:1025080000200240003C014080B483B000AF7860F6
:102518000B467B8013467B707B78002B03D07A8830
:102528007B689A6103E07B881A047B689A610C37A0
:10253800BD465DF8047B704780B483B000AF786017
:102548000B467B807B685A697B885A407B685A6156
:102558000C37BD465DF8047B704700BF80B582B07C
:1025680000AF0346FB80084B5A69FB881340002BD9
:1025780006D0054AFB885361FB88184600F006F828
:102588000837BD4680BD00BF003C014080B483B021
:1025980000AF0346FB800C37BD465DF8047B7047EF
:1025A80080B584B000AF78600023FB600023BB6077
:1025B8007B68002B01D10123BDE07B6893F835309F
:1025C800DBB2002B02D17868FEF706FD7B68022299
:1025D80083F835207B681B687A681268126822F0D5
:1025E80001021A6001F056F9B860BB68544AA2FBB0
:1025F80003239B0CFB607B681B68FA685A607B6846
:102608001A687B685B684F498B4202D8FB680133C4
:1026180009E0FB684FF4967101FB03F34A49A1FBFB
:1026280003139B09013313627B6819687B685B6835
:10263800444A934212D87B685B685B00BA68B2FB75
:10264800F3F3C3F30B03032B06D97B685B685B00CA
:10265800BA68B2FBF3F345E0042343E07B689B6868
:10266800002B0FD17B685A6813465B001344BA6885
:10267800B2FBF3F3C3F30B03002B0CBF01230023BE
:10268800DBB210E07B685A6813469B0013449A003B
:102698001344BA68B2FBF3F3C3F30B03002B0CBF6C
:1026A80001230023DBB2002B01D001231AE07B6851
:1026B8009B68002B0AD17B685A6813465B00134459
:1026C800BA68B2FBF3F343F400430BE07B685A6843
:1026D80013469B0013449A001344BA68B2FBF3F301
:1026E80043F44043CB617B681B687A68D1697A6898
:1026F800126A0A431A607B681B687A6811697A68EB
:10270800D2680A439A607B681B687A6851697A685C
:1027180092690A43DA607B681B687A6812681268F3
:1027280042F001021A607B6800229A637B680122EA
:1027380083F83520002318461037BD4680BD00BFFA
:1027480083DE1B43A0860100D34D621080B586B09E
:1027580000AFF8607A601A460B467B8113463B81CE
:10276800FB6893F83530DBB2012B40F09A807B6828
:10277800002B02D03B89002B01D1012392E0FB689A
:102788001B689B6903F00203002B01D0022389E038
:10279800FB6893F83430012B01D1022382E0FB68F7
:1027A800012283F83420FB68122283F83520FB6865
:1027B80000229A637B89F86819463A6A00F008FA99
:1027C8000346002B0FD0FB689B6B042B05D1FB68DD
:1027D800002283F83420012364E0FB68002283F898
:1027E800342003235EE0FB681B685B697B61FB6840
:1027F8001B689B697B617B6928E0F8682B4900228C
:102808003B6A00F0E9FA0346002B01D0032349E0B4
:10281800FB681A687B68591C79601B7813613B89CF
:10282800013B3B81FB681B685B6903F00403002BD9
:102838000CD03B89002B09D0FB681A687B68591CAF
:1028480079601B7813613B89013B3B813B89002BF5
:10285800D3D1F868154900223B6A00F0BDFA034657
:10286800002B01D003231DE0FB681B68FA6812687F
:10287800126842F400721A60F8680D4901223B6A36
:1028880000F0AAFA0346002B01D003230AE0FB68F4
:10289800012283F83520FB68002283F834200023C6
:1028A80000E0022318461837BD4680BD80000100AD
:1028B8000200100080B588B000AFF8607A601A4650
:1028C8000B467B8113463B81FB6893F83530DBB2BE
:1028D800012B40F064817B68002B02D03B89002BE0
:1028E80001D101235CE1FB681B689B6903F00203CB
:1028F800002B01D0022353E1FB6893F83430012BFD
:1029080001D102234CE1FB68012283F83420FB68E3
:10291800222283F83520FB6800229A637B89F868B5
:102928001946BA6A00F0B6F90346002B0FD0FB68C7
:102938009B6B042B05D1FB68002283F8342001230C
:102948002EE1FB68002283F83420032328E13B8929
:10295800012B19D1FB681B68FA681268126822F407
:1029680080621A60FB681B685B69FB61FB681B6817
:102978009B69FB61FB69FB681B68FA68126812684F
:1029880042F400721A602DE03B89022B19D1FB68D2
:102998001B68FA681268126822F480621A60FB6881
:1029A8001B68FA681268126842F400621A60FB68D1
:1029B8001B685B69BB61FB681B689B69BB61BB6982
:1029C80010E0FB681B68FA681268126842F48062BB
:1029D8001A60FB681B685B697B61FB681B689B6905
:1029E8007B617B69BAE03B89032B00F28F803B89CE
:1029F800012B16D1F8686C490022BB6A00F0ECF98B
:102A08000346002B01D00323CAE07B685A1C7A6076
:102A1800FA6812681269D2B21A703B89013B3B818D
:102A28009CE03B89022B29D1F86860490022BB6AE7
:102A380000F0D2F90346002B01D00323B0E0FB6875
:102A48001B68FA681268126842F400721A607B68A0
:102A58005A1C7A60FA6812681269D2B21A703B89F5
:102A6800013B3B817B685A1C7A60FA6812681269DC
:102A7800D2B21A703B89013B3B816FE0F8684B4941
:102A88000022BB6A00F0A8F90346002B01D00323FB
:102A980086E0FB681B68FA681268126822F4806294
:102AA8001A607B685A1C7A60FA6812681269D2B296
:102AB8001A703B89013B3B81F8683C490022BB6A9C
:102AC80000F08AF90346002B01D0032368E0FB6875
:102AD8001B68FA681268126842F400721A607B6810
:102AE8005A1C7A60FA6812681269D2B21A703B8965
:102AF800013B3B817B685A1C7A60FA68126812694C
:102B0800D2B21A703B89013B3B8127E0F86826491D
:102B18000022BB6A00F060F90346002B01D00323B2
:102B28003EE07B685A1C7A60FA6812681269D2B271
:102B38001A703B89013B3B81FB681B685B6903F0AA
:102B48000403002B0AD07B685A1C7A60FA68126862
:102B58001269D2B21A703B89013B3B813B89002B39
:102B68007FF441AFFB681B68FA681268126822F4A8
:102B780000621A60F8680E490122BB6A00F02CF95D
:102B88000346002B01D003230AE0FB68012283F8E7
:102B98003520FB68002283F83420002300E002235C
:102BA80018462037BD4680BD4000010004000100E2
:102BB8000200100080B483B000AF78607B6893F89F
:102BC8003530DBB218460C37BD465DF8047B7047DC
:102BD80080B584B000AFF8600B467A607B81FB68F3
:102BE8001B68FA681268126842F480721A60F86802
:102BF8004FF0011100227B6800F0EEF80346002B2D
:102C080001D003233DE0FB681B69B3F5804F07D172
:102C1800FB681B687A89D2B202F0FE021A611FE0D3
:102C2800FB681B687A8902F44072D211D2B262F052
:102C38000F02D2B21A61F86814497A6800F056F99E
:102C48000346002B07D0FB689B6B042B01D10123A3
:102C580017E0032315E0FB681B687A89D2B21A6172
:102C6800F8680B497A6800F041F90346002B07D051
:102C7800FB689B6B042B01D1012302E0032300E0D6
:102C8800002318461037BD4680BD00BF080001006C
:102C98000200010080B586B000AFF8600B467A608C
:102CA8007B81FB681B68FA681268126842F48062CC
:102CB8001A60FB681B68FA681268126842F480722E
:102CC8001A60F8684FF0011100227B6800F084F860
:102CD8000346002B01D0032376E0FB681B69B3F59C
:102CE800804F08D1FB681B687A89D2B242F0010292
:102CF800D2B21A6157E0FB681B687A8902F4407205
:102D0800D211D2B262F00F02D2B21A61F868304919
:102D18007A6800F0EBF80346002B07D0FB689B6B42
:102D2800042B01D101234FE003234DE0FB681B680E
:102D38007A89D2B21A61F86826497A6800F0D6F81A
:102D48000346002B07D0FB689B6B042B01D10123A2
:102D58003AE0032338E0FB681B685B697B61FB682A
:102D68001B689B697B617B69FB681B68FA68126852
:102D7800126842F480721A60F8684FF0011100225C
:102D88007B6800F029F80346002B01D003231BE0E1
:102D9800FB681B687A8902F44072D211D2B262F0E1
:102DA8000E02D2B21A61F8680A497A6800F09EF8F1
:102DB8000346002B07D0FB689B6B042B01D1012332
:102DC80002E0032300E0002318461837BD4680BD03
:102DD800080001000200010080B586B000AFF8606D
:102DE800B9603B601346FB7100237B61FEF73CFD35
:102DF8007861FB79002B3AD118E03B68B3F1FF3FCB
:102E080014D03B68002B07D0FEF72EFD02467B69E5
:102E1800D21A3B689A4209D9FB68012283F8352007
:102E2800FB68002283F8342003235BE0BB681B0C9B
:102E3800DBB2012B0CD1FB681B685B69DA43BB680A
:102E480013409BB2002B14BF01230023DBB20BE01D
:102E5800FB681B689B69DA43BB6813409BB2002B75
:102E680014BF01230023DBB2002BC6D139E018E0E0
:102E78003B68B3F1FF3F14D03B68002B07D0FEF747
:102E8800F3FC02467B69D21A3B689A4209D9FB686F
:102E9800012283F83520FB68002283F834200323BD
:102EA80020E0BB681B0CDBB2012B0CD1FB681B6854
:102EB8005B69DA43BB6813409BB2002B0CBF01234C
:102EC8000023DBB20BE0FB681B689B69DA43BB6835
:102ED80013409BB2002B0CBF01230023DBB2002B55
:102EE800C6D1002318461837BD4680BD80B586B0C8
:102EF80000AFF860B9607A6000237B61FEF7B4FC2C
:102F0800786139E0FB681B685B6903F48063002B18
:102F180019D0FB681B68FA681268126842F40072DC
:102F28001A60FB681B686FF480625A61FB680422B0
:102F38009A63FB68012283F83520FB68002283F836
:102F48003420012339E07B68B3F1FF3F14D07B685C
:102F5800002B07D0FEF788FC02467B69D21A7B68F3
:102F68009A4209D9FB68012283F83520FB680022C0
:102F780083F83420032320E0BB681B0CDBB2012B51
:102F88000CD1FB681B685B69DA43BB6813409BB2D2
:102F9800002B14BF01230023DBB20BE0FB681B6886
:102FA8009B69DA43BB6813409BB2002B14BF012313
:102FB8000023DBB2002BA5D1002318461837BD46E5
:102FC80080BD00BF80B598B000AF78600023FB6576
:102FD8007B681B6803F00103002B6AD0A34B9B6836
:102FE80003F00C03042B0BD0A04B9B6803F00C03DD
:102FF800082B12D19D4B5B6803F48003002B0CD087
:103008009A4B1B6803F40033002B05D07B685B6880
:10301800002B01D1012320E24BE0954B00221A70CE
:10302800FEF722FCF8650AE0FEF71EFC0246FB6D7F
:10303800D31A41F28832934201D903230DE28B4B14
:103048001B6803F40033002BEED1894A7B685B6868
:10305800DBB213707B685B68002B15D0FEF704FCAD
:10306800F8650AE0FEF700FC0246FB6DD31A41F250
:103078008832934201D90323EFE17C4B1B6803F4A8
:103088000033002BEED014E0FEF7EEFBF8650AE003
:10309800FEF7EAFB0246FB6DD31A41F288329342EF
:1030A80001D90323D9E1714B1B6803F40033002BCA
:1030B800EED17B681B6803F00203002B7FD06B4BBB
:1030C8009B6803F00C03002B0BD0684B9B6803F044
:1030D8000C03082B2AD1654B5B6803F48003002B93
:1030E80024D1624B1B6803F00203002B05D07B68D8
:1030F800DB68012B01D00123AFE15C485B4B1B6807
:1031080023F0F8027B681B69F821B965B96D91FA5B
:10311800A1F17965796D3965396DB1FA81F1F96493
:10312800F96CC9B28B401343036048E07B68DB68E5
:10313800002B2ED04F4B01221A60FEF795FBF86545
:1031480008E0FEF791FB0246FB6DD31A642B01D908
:10315800032382E1454B1B6803F00203002BF0D0E8
:103168004248424B1B6823F0F8027B681B69F82130
:10317800B964B96C91FAA1F17964796C3964396CE4
:10318800B1FA81F1F963F96BC9B28B40134303605B
:1031980015E0384B00221A60FEF766FBF86508E078
:1031A800FEF762FB0246FB6DD31A642B01D9032399
:1031B80053E12E4B1B6803F00203002BF0D17B6810
:1031C8001B6803F00803002B30D07B685B69002B79
:1031D80016D0294B01221A60FEF746FBF86508E075
:1031E800FEF742FB0246FB6DD31A642B01D9032379
:1031F80033E11E4B5B6F03F00203002BF0D015E0A8
:103208001D4B00221A60FEF72FFBF86508E0FEF759
:103218002BFB0246FB6DD31A642B01D903231CE157
:10322800124B5B6F03F00203002BF0D17B681B6825
:1032380003F00403002B75D00C4A0C4B1B6C43F0B5
:10324800805313640D4A0D4B1B6843F4807313605D
:10325800FEF70AFBF86513E0FEF706FB0246FB6D76
:10326800D31A642B0CD90323F7E000BF00380240BF
:103278000238024000004742800E4742007000407A
:10328800784B1B6803F48073002BE5D0764B002243
:103298001A70FEF7E9FAF8650AE0FEF7E5FA024661
:1032A800FB6DD31A41F28832934201D90323D4E04B
:1032B8006E4B1B6F03F00203002BEED16A4A7B684A
:1032C8009B68DBB213707B689B68012B15D1FEF7F6
:1032D800CBFAF8650AE0FEF7C7FA0246FB6DD31A87
:1032E80041F28832934201D90323B6E05F4B1B6F4A
:1032F80003F00203002BEED014E0FEF7B5FAF865F0
:103308000AE0FEF7B1FA0246FB6DD31A41F28832A1
:10331800934201D90323A0E0544B1B6F03F002032F
:10332800002BEED17B689B69002B00F095804F4BFA
:103338009B6803F00C03082B00F08C807B689B696A
:10334800022B70D14A4B00221A60FEF78DFAF865FD
:1033580008E0FEF789FA0246FB6DD31A642B01D9FF
:1033680003237AE0414B1B6803F00073002BF0D174
:103378003E487B681A6A7B685B6A47F6C071B96326
:10338800B96B91FAA1F17963796B3963396BB1FA49
:1033980081F1F962F96AC9B28B401A437B689B6A6A
:1033A8005B08013B4FF44031B962B96A91FAA1F167
:1033B8007962796A3962396AB1FA81F1F961F96930
:1033C800C9B28B401A437B68DB691A437B68DB6AA6
:1033D8004FF07061B961B96991FAA1F179617969C0
:1033E80039613969B1FA81F1F960F968C9B28B407C
:1033F800134343F0005343601D4B01221A60FEF74C
:1034080033FAF86508E0FEF72FFA0246FB6DD31A87
:10341800642B01D9032320E0144B1B6803F00073CD
:10342800002BF0D018E0124B00221A60FEF71CFAAD
:10343800F86508E0FEF718FA0246FB6DD31A642B0C
:1034480001D9032309E0094B1B6803F00073002B23
:10345800F0D101E0012300E0002318466037BD46A3
:1034680080BD00BF00700040703802400038024044
:103478006000474280B584B000AF786039600023AF
:10348800FB60A64B1B6803F00F023B689A4280F072
:103498009080A24B3A68D2B21A70A04B1B6803F016
:1034A8000F023B689A4201D0012333E17B681B6815
:1034B80003F00203002B08D09949994B9B6823F02D
:1034C800F0027B689B6813438B607B681B6803F082
:1034D8000103002B00F0FB807B685B68012B07D1A0
:1034E8008F4B1B6803F40033002B15D1012311E126
:1034F8007B685B68022B07D1894B1B6803F000735C
:10350800002B09D1012305E1854B1B6803F0020359
:10351800002B01D10123FDE08149814B9B6823F0F9
:1035280003027B685B6813438B60FEF79DF9F860C4
:103538007B685B68012B12D10AE0FEF795F9024619
:10354800FB68D31A41F28832934201D90323E1E0A0
:10355800734B9B6803F00C03042BEED1B7E07B6838
:103568005B68022B12D10AE0FEF77EF90246FB687F
:10357800D31A41F28832934201D90323CAE0684B37
:103588009B6803F00C03082BEED1A0E00AE0FEF7DD
:103598006BF90246FB68D31A41F28832934201D98B
:1035A8000323B7E05E4B9B6803F00C03002BEED1BE
:1035B8008DE07B681B6803F00203002B08D0584994
:1035C800574B9B6823F0F0027B689B6813438B6022
:1035D8007B681B6803F00103002B6BD07B685B687A
:1035E800012B07D14E4B1B6803F40033002B15D178
:1035F80001238FE07B685B68022B07D1484B1B686F
:1036080003F00073002B09D1012383E0444B1B68AE
:1036180003F00203002B01D101237BE04049404B1A
:103628009B6823F003027B685B6813438B60FEF79B
:103638001BF9F8607B685B68012B12D10AE0FEF782
:1036480013F90246FB68D31A41F28832934201D932
:1036580003235FE0324B9B6803F00C03042BEED18D
:1036680028E07B685B68022B12D10AE0FEF7FCF8C1
:103678000246FB68D31A41F28832934201D90323E8
:1036880048E0274B9B6803F00C03082BEED111E0B0
:103698000AE0FEF7E9F80246FB68D31A41F28832DD
:1036A800934201D9032335E01D4B9B6803F00C03BB
:1036B800002BEED1194B3A68D2B21A70174B1B681F
:1036C80003F00F023B689A4201D0012322E07B6895
:1036D8001B6803F00403002B08D01149104B9B68AA
:1036E80023F4E0527B68DB6813438B607B681B68BC
:1036F80003F00803002B09D00949094B9B6823F400
:1037080060427B681B69DB0013438B600020FEF777
:1037180081F8002318461037BD4680BD003C0240A2
:103728000038024080B491B000AF00237B630023CF
:10373800FB6300233B630023BB633D4B9B6803F0A3
:103748000C03042B06D0082B07D0002B66D1394B6D
:10375800BB6366E0384BBB6363E0354B5B6803F0E3
:103768003F037B63324B5B6803F48003002B1CD060
:10377800314A7B6BB2FBF3F22D4B596847F6C073A5
:103788000B4047F6C071F962F96A91FAA1F1B96282
:10379800B96A7962796AB1FA81F13962396AC9B26A
:1037A800CB4003FB02F3FB631BE0224A7B6BB2FBBB
:1037B800F3F21F4B596847F6C0730B4047F6C071C8
:1037C800F961F96991FAA1F1B961B9697961796920
:1037D800B1FA81F139613969C9B2CB4003FB02F30F
:1037E800FB63134B5B6803F440334FF44032FA60D9
:1037F800FA6892FAA2F2BA60BA687A607A68B2FA9B
:1038080082F23A603A68D2B2D34001335B003B633C
:10381800FA6B3B6BB2FBF3F3BB6302E0054BBB6394
:1038280000BFBB6B18464437BD465DF8047B704744
:1038380000380240007A030A00127A0080B584B08A
:1038480000AFFFF76FFF01460F4B9B6803F0F003D3
:10385800F022FA60FA6892FAA2F2BA60BA687A605C
:103868007A68B2FA82F23A603A68D2B2D340074A2A
:10387800D35C21FA03F3064A1360054B1B6818460C
:103888001037BD4680BD00BF003802401CCF01087C
:103898000000002080B584B000AFFFF7CFFF0146DD
:1038A8000D4B9B6803F4E0534FF4E052FA60FA685A
:1038B80092FAA2F2BA60BA687A607A68B2FA82F2C8
:1038C8003A603A68D2B2D340044AD35C21FA03F38F
:1038D80018461037BD4680BD003802401CCF01088D
:1038E80080B58CB000AF78600023FB620023BB6218
:1038F8007B681B6803F00103002B54D0694B00223E
:103908001A60FDF7B1FFF86208E0FDF7ADFF024667
:10391800FB6AD31A642B01D90323BFE0624B1B68EF
:1039280003F00063002BF0D15F487B685B6847F6C3
:10393800C0727A627A6A92FAA2F23A623A6AFA61D2
:10394800FA69B2FA82F2BA61BA69D2B203FA02F239
:103958007B689B684FF0E0417961796991FAA1F140
:1039680039613969F960F968B1FA81F1B960B96802
:10397800C9B28B401343C0F884304A4B01221A6005
:10398800FDF772FFF86208E0FDF76EFF0246FB6A7A
:10399800D31A642B01D9032380E0434B1B6803F03F
:1039A8000063002BF0D07B681B6803F00203002B38
:1039B80073D03D4A3C4B1B6C43F0805313643B4A25
:1039C8003A4B1B6843F480731360FDF74DFFF862B0
:1039D80008E0FDF749FF0246FB6AD31A642B01D9B8
:1039E80003235BE0314B1B6803F48073002BF0D09A
:1039F8002D4B1A6F7B68DB68534003F44073002B30
:103A08000DD0294B1B6F23F44073BB62284B012256
:103A18001A60274B00221A60234ABB6A13677B6827
:103A2800DB68B3F5807F14D1FDF71EFFF8620AE06A
:103A3800FDF71AFF0246FB6AD31A41F28832934215
:103A480001D903232AE0184B1B6F03F00203002B54
:103A5800EED07B68DB6803F44073B3F5407F0DD18B
:103A68001149114B9B6823F4F8127B68DB6823F03B
:103A7800704323F4407313438B6005E00A4A0A4BF2
:103A88009B6823F4F81393600749074B1A6F7B6808
:103A9800DB68C3F30B0313430B6700231846303767
:103AA800BD4680BD680047420038024000700040B3
:103AB800400E474280B582B000AF78607B68002B2B
:103AC80001D101236AE07B685B7FDBB2002B02D166
:103AD8007868FDF7C5FD7B6802225A777B681B680A
:103AE800CA225A627B681B6853225A62786800F0BF
:103AF800FDF90346002B08D07B681B68FF225A6239
:103B08007B6804225A77012348E07B681A687B683F
:103B18001B689B6823F4E00323F0400393607B68F1
:103B28001B687A68126891687A6850687A681269BE
:103B380010437A68526902430A439A607B681B689B
:103B48007A68D2681A617B681B687A68126811699A
:103B58007A68926812040A431A617B681B687A685B
:103B68001268D26822F08002DA607B681B687A6883
:103B78001268126C22F480221A647B681B687A68C7
:103B88001268116C7A6892690A431A647B681B6828
:103B9800FF225A627B6801225A77002318460837A9
:103BA800BD4680BD90B587B000AFF860B9607A6057
:103BB80000237B61FB681B7F012B01D10223B2E04C
:103BC800FB6801221A77FB6802225A777B68002B70
:103BD80026D1FB681B689B6803F04003002B02D1C9
:103BE800BB6800221A72BB681B78184600F0AAF955
:103BF80003461C04BB685B78184600F0A3F903462B
:103C08001B021C43BB689B78184600F09BF90346CF
:103C180044EA0302BB681B7A1B0413437B6120E060
:103C2800FB681B689B6803F04003002B07D0BB6848
:103C38001B78184600F0A4F903467B6102E0BB68D4
:103C480000221A72BB681B781A04BB685B781B02D7
:103C58001343BA6892781A43BB681B7A1B04134350
:103C68007B61FB681B68CA225A62FB681B68532287
:103C78005A62F86800F03AF90346002B0BD0FB684B
:103C88001B68FF225A62FB6804225A77FB680022ED
:103C98001A77012347E0FB681A687B6903F07F33D2
:103CA80023F0FE431360FB681B68FA681268926889
:103CB80022F480229A60FB681B68FA68126891688F
:103CC800BA68D068BA68126902430A439A60FB6806
:103CD8001B68FA681268D26822F08002DA60FB6812
:103CE8001B689B6803F02003002B11D1F86800F0D3
:103CF800D5F80346002B0BD0FB681B68FF225A62DD
:103D0800FB6804225A77FB6800221A7701230AE02D
:103D1800FB681B68FF225A62FB6801225A77FB681E
:103D280000221A77002318461C37BD4690BD00BFF5
:103D380090B587B000AFF860B9607A6000237B6106
:103D4800FB681B7F012B01D10223A2E0FB68012243
:103D58001A77FB6802225A777B68002B0ED1BB6862
:103D68005B7803F01003002B08D0BB685B7823F066
:103D78001003DBB20A33DAB2BB685A707B68002BD7
:103D88001CD1BB68DB78184600F0DCF803461C043D
:103D9800BB685B78184600F0D5F803461B021C4345
:103DA800BB689B78184600F0CDF8034644EA030246
:103DB800BB681B785B0313437B611CE0BB685B78C3
:103DC800184600F0DDF803467B61BB689B7818460F
:103DD80000F0D6F803467B61BB68DB781A04BB6841
:103DE8005B781B021343BA6892781A43BB681B7846
:103DF8005B0313437B61FB681B68CA225A62FB683A
:103E08001B6853225A62F86800F070F80346002BCA
:103E18000BD0FB681B68FF225A62FB6804225A77A2
:103E2800FB6800221A77012333E0FB681A687B6974
:103E380023F07F4323F0C0035360FB681B68FA68D4
:103E48001268D26822F08002DA60FB681B689B68FF
:103E580003F02003002B11D1F86800F01FF8034687
:103E6800002B0BD0FB681B68FF225A62FB680422F8
:103E78005A77FB6800221A7701230AE0FB681B685F
:103E8800FF225A62FB6801225A77FB6800221A77E0
:103E9800002318461C37BD4690BD00BF80B584B0CE
:103EA80000AF78600023FB607B681B687A68126843
:103EB800D26822F0A002DA60FDF7D6FCF86009E0CB
:103EC800FDF7D2FC0246FB68D31AB3F57A7F01D915
:103ED800032307E07B681B68DB6803F02003002BE3
:103EE800EED0002318461037BD4680BD80B584B09B
:103EF80000AF78600023FB607B681B68DB6803F019
:103F08004003002B19D17B681B684FF0FF32DA6041
:103F1800FDF7AAFCF86009E0FDF7A6FC0246FB687D
:103F2800D31AB3F57A7F01D9032307E07B681B68AE
:103F3800DB6803F04003002BEED00023184610374F
:103F4800BD4680BD80B485B000AF0346FB71002339
:103F5800FB6005E0FB680133FB60FB790A3BFB7102
:103F6800FB79092BF6D8FB68DBB21B01DAB2FB79C7
:103F78001343DBB218461437BD465DF8047B70471F
:103F880080B485B000AF0346FB710023FB60FB796A
:103F98001B09DBB21A4613469B0013445B00FB6007
:103FA800FB7903F00F03DAB2FB68DBB21344DBB230
:103FB80018461437BD465DF8047B704780B586B057
:103FC80000AFF860B9607A6000237B61FB681B7FF3
:103FD800012B01D102235BE0FB6801221A77FB6801
:103FE80002225A77FB681B68CA225A62FB681B6860
:103FF80053225A62FB681B68FA681268926822F4B6
:1040080080629A60FDF730FC786113E0FDF72CFCC4
:1040180002467B69D31AB3F57A7F0BD9FB681B6814
:10402800FF225A62FB6803225A77FB6800221A773C
:1040380003232DE0FB681B68DB6803F00403002BF7
:10404800E4D0FB681B68FA681268926822F00702DD
:104058009A60FB681B68FA68126891687A680A4374
:104068009A60FB681B68BA685A61FB681B68FA6843
:104078001268926842F480629A60FB681B68FF22AB
:104088005A62FB6801225A77FB6800221A770023DC
:1040980018461837BD4680BD80B584B000AFF860BB
:1040A800B9607A60FB68002B01D1012332E0FB681C
:1040B80093F83D30DBB2002B02D1F868FCF78EFD97
:1040C800FB681A68FB6808331046194600F038FD8B
:1040D800FB681A68FB689B681046B9681A4600F0C6
:1040E8007DFDFB685968FB689A68FB681B6B08468E
:1040F800796800F0B1FDFB681B68FA689268F96896
:104108000968F868806851F8201041F0010143F807
:104118002210002318461037BD4680BD80B582B0F6
:1041280000AF78607B68002B01D1012319E07B6820
:1041380093F83930DBB2002B02D17868FDF71AFB0F
:104148007B68022283F839207B681A687B6804330D
:104158001046194600F0E4F97B68012283F83920FB
:10416800002318460837BD4680BD00BF80B582B021
:1041780000AF78607B68002B01D1012319E07B68D0
:1041880093F83930DBB2002B02D1786800F016F8CA
:104198007B68022283F839207B681A687B680433BD
:1041A8001046194600F0BCF97B68012283F83920D3
:1041B800002318460837BD4680BD00BF80B483B0D1
:1041C80000AF78600C37BD465DF8047B704700BFD0
:1041D80080B584B000AFF860B9607A60FB6893F886
:1041E8003830012B01D10223B4E0FB68012283F8A7
:1041F8003820FB68022283F839207B680C2B00F2F8
:104208009F8001A252F823F0454200084943000864
:10421800494300084943000885420008494300080B
:104228004943000849430008C742000849430008B9
:10423800494300084943000807430008FB681B6816
:104248001846B96800F08CFAFB681B68FA681268AF
:10425800926942F008029A61FB681B68FA68126862
:10426800926922F004029A61FB681B68FA68126876
:104278009169BA6812690A439A6162E0FB681B682F
:104288001846B96800F0F4F9FB681B68FA68126808
:10429800926942F400629A61FB681B68FA681268C6
:1042A800926922F480629A61FB681B68FA68126856
:1042B8009169BA68126912020A439A6141E0FB687F
:1042C8001B681846B96800F0BDFAFB681B68FA68F5
:1042D8001268D26942F00802DA61FB681B68FA6862
:1042E8001268D26922F00402DA61FB681B68FA6876
:1042F8001268D169BA6812690A43DA6121E0FB6879
:104308001B681846B96800F013FBFB681B68FA685D
:104318001268D26942F40062DA61FB681B68FA68C5
:104328001268D26922F48062DA61FB681B68FA6855
:104338001268D169BA68126912020A43DA6100E0A8
:1043480000BFFB68012283F83920FB68002283F84C
:104358003820002318461037BD4680BD80B584B08C
:1043680000AF786039600023FB607B6893F83830D1
:10437800012B01D10223CFE07B68012283F838208A
:104388007B68022283F839207B681B689B68FB6086
:10439800FB6823F07703FB60FB6823F47F43FB6033
:1043A8007B681B68FA689A603B681B68402B7CD066
:1043B800402B0FD8102B00F09180102B03D8002B26
:1043C80000F085809FE0202B00F08F80302B00F0DC
:1043D800938098E0702B16D0702B04D8502B40D0C7
:1043E800602B50D08FE0B3F5805F03D0B3F5005F4A
:1043F80024D088E07B681B687A681268926822F08B
:1044080007029A607FE07B6818683B6899683B6898
:104418005A683B68DB6800F071FB7B681B689B6827
:10442800FB60FB6823F07703FB60FB6843F07703CE
:10443800FB607B681B68FA689A6064E07B681868B0
:104448003B6899683B685A683B68DB6800F056FB34
:104458007B681B687A681268926842F480429A60A6
:1044680051E07B6819683B685A683B68DB68084616
:1044780011461A4600F0BCFA7B681B6818465021A2
:1044880000F01CFB3FE07B6819683B685A683B6892
:10449800DB68084611461A4600F0DCFA7B681B68A0
:1044A8001846602100F00AFB2DE07B6819683B681C
:1044B8005A683B68DB68084611461A4600F098FAC5
:1044C8007B681B681846402100F0F8FA1BE07B68FF
:1044D8001B681846002100F0F1FA14E07B681B689D
:1044E8001846102100F0EAFA0DE07B681B681846B0
:1044F800202100F0E3FA06E07B681B6818463021AB
:1045080000F0DCFA00BF7B68012283F839207B6861
:10451800002283F83820002318461037BD4680BD96
:1045280080B485B000AF786039600023FB607B6899
:104538001B68FB607B68434A934213D07B68B3F1E6
:10454800804F0FD07B68404A93420BD07B683F4A2C
:10455800934207D07B683E4A934203D07B683D4A2A
:10456800934201D1012300E00023002B08D0FB680F
:1045780023F07003FB603B685B68FA681343FB60D9
:104588007B68304A93422BD07B68B3F1804F27D0A9
:104598007B682D4A934223D07B682C4A93421FD0D4
:1045A8007B682B4A93421BD07B682A4A934217D0D8
:1045B8007B68294A934213D07B68284A93420FD0DC
:1045C8007B68274A93420BD07B68264A934207D0E0
:1045D8007B68254A934203D07B68244A934201D1E1
:1045E800012300E00023002B08D0FB6823F440736C
:1045F800FB603B68DB68FA681343FB607B68FA681A
:104608001A603B689A687B68DA623B681A687B685C
:104618009A627B680B4A934203D07B680D4A9342A7
:1046280001D1012300E00023002B03D03B681A6965
:104638007B681A637B6801225A611437BD465DF8AE
:10464800047B70470000014000040040000800405F
:10465800000C0040000401400040014000440140BB
:104668000048014000180040001C004000200040A5
:1046780080B487B000AF786039600023FB60002306
:104688007B6100233B617B681B6A23F010027B6817
:104698001A627B681B6A7B617B685B683B617B682D
:1046A8009B69FB60FB6823F4E043FB60FB6823F431
:1046B8004073FB603B681B681B02FA681343FB608E
:1046C8007B6923F020037B613B689B681B017A6947
:1046D80013437B617B68204A934203D07B681F4A5F
:1046E800934201D1012300E00023002B21D07B69F4
:1046F80023F080037B613B68DB681B017A69134305
:104708007B617B6923F040037B613B6923F4806311
:104718003B613B6923F400633B613B685B699B0039
:104728003A6913433B613B689B699B003A691343B1
:104738003B617B683A695A607B68FA689A613B68B2
:104748005A687B689A637B687A691A621C37BD4627
:104758005DF8047B704700BF000001400004014081
:1047680080B487B000AF786039600023FB60002315
:104778007B6100233B617B681B6A23F001027B6835
:104788001A627B681B6A7B617B685B683B617B683C
:104798009B69FB60FB6823F07003FB60FB6823F0F8
:1047A8000303FB603B681B68FA681343FB607B6983
:1047B80023F002037B613B689B687A6913437B6142
:1047C8007B681E4A934203D07B681D4A934201D1FD
:1047D800012300E00023002B1ED07B6923F008038F
:1047E8007B613B68DB687A6913437B617B6923F0F3
:1047F80004037B613B6923F480733B613B6923F4C9
:1048080000733B613B685B693A6913433B613B68F2
:104818009B693A6913433B617B683A695A607B68D4
:10482800FA689A613B685A687B685A637B687A6958
:104838001A621C37BD465DF8047B704700000140D2
:104848000004014080B487B000AF7860396000236D
:10485800FB6000237B6100233B617B681B6A23F4B8
:1048680080727B681A627B681B6A7B617B685B6805
:104878003B617B68DB69FB60FB6823F07003FB60CE
:10488800FB6823F00303FB603B681B68FA6813436B
:10489800FB607B6923F400737B613B689B681B02A8
:1048A8007A6913437B617B681F4A934203D07B6814
:1048B8001E4A934201D1012300E00023002B21D09E
:1048C8007B6923F400637B613B68DB681B027A69C0
:1048D80013437B617B6923F480637B613B6923F429
:1048E80080533B613B6923F400533B613B685B6940
:1048F8001B013A6913433B613B689B691B013A6999
:1049080013433B617B683A695A607B68FA68DA61ED
:104918003B685A687B68DA637B687A691A621C3775
:10492800BD465DF8047B704700000140000401406B
:1049380080B487B000AF7860396000233B61002302
:10494800FB6000237B617B681B6A23F480527B68D1
:104958001A627B681B6AFB607B685B687B617B68AB
:10496800DB693B613B6923F4E0433B613B6923F42A
:1049780040733B613B681B681B023A6913433B6108
:10498800FB6823F40053FB603B689B681B03FA68D1
:104998001343FB607B68144A934203D07B68134A35
:1049A800934201D1012300E00023002B09D07B6949
:1049B80023F480437B613B685B699B017A691343FD
:1049C8007B617B687A695A607B683A69DA613B681F
:1049D8005A687B681A647B68FA681A621C37BD4695
:1049E8005DF8047B704700BF0000014000040140EF
:1049F80080B487B000AFF860B9607A6000237B614B
:104A080000233B61FB681B6A3B61FB681B6A23F060
:104A18000102FB681A62FB689B697B617B6923F072
:104A2800F0037B617B681B017A6913437B613B69F7
:104A380023F00A033B613A69BB6813433B61FB6897
:104A48007A699A61FB683A691A621C37BD465DF853
:104A5800047B704780B487B000AFF860B9607A60B3
:104A680000237B6100233B61FB681B6A23F0100273
:104A7800FB681A62FB689B697B61FB681B6A3B6188
:104A88007B6923F470437B617B681B037A6913435A
:104A98007B613B6923F0A0033B61BB681B013A695A
:104AA80013433B61FB687A699A61FB683A691A6249
:104AB8001C37BD465DF8047B704700BF80B485B0E5
:104AC80000AF78600B467B800023FB607B689B68A7
:104AD800FB60FB6823F07003FB607B8843F00703EF
:104AE8009BB21A46FB681343FB607B68FA689A60BE
:104AF8001437BD465DF8047B704700BF80B487B0AB
:104B080000AFF860B9607A603B6000237B61FB68A6
:104B18009B687B617B6923F47F437B613B681A0256
:104B28007B681A43BB6813437A6913437B61FB684C
:104B38007A699A601C37BD465DF8047B704700BFF0
:104B480080B485B000AF786039600023FB603B68B3
:104B58001A687B6853F82230FB60FA681E4B1340D2
:104B6800FB603B685A683B689B681A433B68DB6894
:104B78001A433B681B691A433B685B691A433B68E5
:104B88009B691A433B68DB691A433B681B6A1A43F3
:104B98003B685B6A1A433B689B6A1A433B68DB6A5B
:104BA8001A433B681B6B1343FA681343FB603B686B
:104BB8009B68082B03D1FB6843F04003FB603B680C
:104BC8001A687B68F96843F82210002318461437DE
:104BD800BD465DF8047B70478000F7FF80B487B05E
:104BE80000AFF860B9607A6000237B617B685A1C6B
:104BF800FB6853F822307B617B6903F040437B619B
:104C0800BB681A68BB685B681B011A43BB689B6872
:104C18001B021A43BB68DB681B041A43BB681B6989
:104C2800013B1B051A43BB685B69023B1B061A4321
:104C3800BB689B6913437A6913437B617B685A1C81
:104C4800FB68796943F82210002318461C37BD46D3
:104C58005DF8047B704700BF80B487B000AFF86090
:104C6800B9607A603B6000237B613B68B3F5804F95
:104C78002CD1FB687A6853F822307B617B6903F09A
:104C880040437B61BB681A68BB685B681B011A43B9
:104C9800BB689B681B021A43BB68DB681B041A438A
:104CA800BB681B69013B1B051A43BB685B69023B78
:104CB8001B061A43BB689B6913437A6913437B61DC
:104CC800FB687A68796943F8221005E0FB687A681E
:104CD8006FF0704143F82210002318461C37BD4678
:104CE8005DF8047B704700BFDFF834D0002103E093
:104CF8000C4B5B58435004310B480C4B42189A42FA
:104D0800F6D30B4A02E0002342F8043B094B9A42CF
:104D1800F9D300F013F80DF0DDFDFCF733FB704715
:104D2800FFFF0120B85502080000002040060020BF
:104D380040060020E88B0020FEE7000080B400AFAA
:104D4800164A164BD3F8883043F47003C2F88830FB
:104D5800134A134B1B6843F001031360104B0022E6
:104D68009A600F4A0E4B1B6823F0847323F4803338
:104D780013600B4B0B4A5A60094A094B1B6823F412
:104D880080231360064B0022DA60044B4FF0006268
:104D98009A60BD465DF8047B704700BF00ED00E0F7
:104DA80000380240103000242DE9F74344680546D6
:104DB800204609F0D9FD02AE876B46F8080DD0F8F9
:104DC8003490D0F84080684609F0DCFD2B681F2B32
:104DD80048D006DC0F2B65D01E2B14D00E2B6ED1BD
:104DE8001FE0222B68D02A2B02D0202B67D13EE06F
:104DF800204609F0B9FDE968009009B1C16320E0D7
:104E0800C06BE8601DE0EB68002B61D0EFB1A742F2
:104E18001BD0384602F019FC50B1384602F082FA2D
:104E280056E0E8684268002A49DD0168092933D15B
:104E3800204602F045FA0546204609F095FD009007
:104E48008563684609F09EFD42E0204602F038FA84
:104E58000546204609F088FD024602A8956340F8F9
:104E6800082DEEE72046294600F04EF930E02046AE
:104E780009F07AFDED68019065B16868214602F095
:104E88005DF938B92868214602F047F910B12A6857
:104E9800019B9A6301A8D5E70A2910D1204602F0A0
:104EA800DFF9C8E76FF07041884508D0404606F042
:104EB800FBFB08F08FFA02E0C5F80C8008E0B9F1B6
:104EC800000F02D02846C84702E0284603F078FDC4
:104ED800BDE8FE8337B50D46044609F045FD024698
:104EE80002A8156440F8042D09F04CFD204603F093
:104EF8004BF93EBD10B586B0089C0094099C0194FE
:104F08000F4C02940D9C1834039403F0F9F90446ED
:104F180090B109F029FD0B990590102200F0ECF8EA
:104F280006A80C9950F8042D516306490023936391
:104F38000B68136409F026FD204606B010BD00BFBB
:104F4800B14D000804000020F0B587B0B0F90C702E
:104F5800B0F90E60B0F91050B0F90AE00091418A3A
:104F6800002402940191B0F908100C9C0391049458
:104F78008469F9180EEB0200059432462B46FFF7B8
:104F8800B9FF07B0F0BD37B50D4600F1080102467C
:104F9800C36A03C91C688DE803001046694602F01D
:104FA800AAF8B5F90000BDF9003002199A4217DCD9
:104FB800B5F90410BDF90420081B904210DBB5F9BF
:104FC8000230BDF902001919814209DCB5F9060061
:104FD800BDF90620041B9442ACBF0020012000E06C
:104FE80001203EBD70B5B0F90030B0F904601588F5
:104FF8009488F01A83B2D0885288CC80181A9B1AE9
:1050080008808B804D8070BD438E13B503F0080077
:105018000C4681B279B1684602F0D6FBBDF8022091
:10502800BDF80630BDF80000BDF804102280A3804A
:105038006080E18002E0204602F0C6FB1CBD38B566
:1050480004460D4603F058F8E36A1A6828462946CC
:10505800BDE8384006F0C9BB13B5044609F084FC26
:10506800438E019003F0080081B2204611B102F08E
:105078001FFB01E002F008FB044601A809F082FCCE
:1050880020461CBD37B50C46054609F06DFC428E1E
:105098000190944203D04486284603F075F801A88D
:1050A80009F070FC3EBD37B50C46054678B109F0ED
:1050B8005BFC428E019004EA02018C4204D0144346
:1050C8004486284603F060F801A809F05BFC3EBD61
:1050D80037B50D46044670B109F046FC428E019082
:1050E80022EA05018A4203D04186204603F04CF8A3
:1050F80001A809F047FC3EBD024B42861B680186A9
:10510800C362704708000020F0B50D4685B006461A
:10511800002800F0938009F027FC2B680290152BDB
:10512800024630D006DC112B30D0142B7AD00D2B50
:105138007DD13CE01E2B48D004DC162B77D1EB68E0
:10514800038672E01F2B68D0B3F5407F6FD1C06A29
:10515800ED680168D5622A6802A88D1A09F012FC68
:10516800304609F001FC04AC694244F8040D0A46D3
:105178002B46009501F03DFF204609F003FC304620
:1051880003F002F851E0B0F9300049E0428E02F035
:10519800100398B200284AD0E9680C7A002C46D04F
:1051A80002A809F0EFFB304602F0BCF83FE0E868DF
:1051B800C16800293BD00C7A002C38D002A809F02D
:1051C800E1FB304602F010FB2FE0EF68418E012F23
:1051D8000AD101F0100294B26CB1304641F00101DD
:1051E800FFF750FF082708E021F001013046FFF7DC
:1051F80049FF092701E04FF0FF3702A809F0C2FB79
:105208007B1C4FF0000405D03046394602F08AF97D
:10521800EC600DE00123EB600AE0438EC3F300105D
:10522800E86002E0E968FFF70AFF002400E00124D3
:10523800029820B102A809F0A5FB00E0012420464D
:1052480005B0F0BD13B51446428E0B4602F00801B6
:105258008AB222B11A466946FFF7C4FE6B46184661
:10526800214607F031FD1CBD1FB5448E04F008042B
:10527800A4B2ACB189B2ADF80010ADF80410ADF825
:10528800022002A96A46ADF80630FFF7ABFEBDF969
:105298000A00BDF90810BDF90C2007F0A1FB04E0D5
:1052A800084611461A4607F027F91FBD438E07B571
:1052B8000A4603F008018BB21BB16946FFF792FE5C
:1052C8006A46104607F0CCF80EBD37B505460C46C1
:1052D80019B9684602F078FA6C466B8E03F008003C
:1052E80081B229B1224628466946FFF77BFE6C4603
:1052F80028462146FFF747FE18B1EA6A2046136997
:1053080098473EBD438E37B50C4603F008018AB274
:10531800054622B122466946FFF764FE6C462846D8
:105328002146FFF730FE18B1E86A8368204698479F
:105338003EBD37B50C46054660B109F015FB826BDA
:105348000190A24203D08463284602F01DFF01A801
:1053580009F018FB3EBD37B50D46044660B109F0AB
:1053680003FB024602A8A2F8485040F8042D09F0B1
:1053780009FB204602F008FF3EBD37B50C4605463E
:1053880000B309F0F1FA436C00906846019309F004
:10539800F9FA214601A806F0EEF9D0F1010438BF68
:1053A800002484B9284609F0DFFA019A416C00907C
:1053B800914218BF4264684609F0E4FA284602F0B0
:1053C800E3FE00E0012420463EBD37B50C46054605
:1053D80060B109F0C9FA426B0190A24203D044635C
:1053E800284602F0D1FE01A809F0CCFA3EBDF0B57E
:1053F80087B0B0F90C70B0F90E60B0F91050B0F980
:105408000AE0009102210191448A0294B0F908103F
:105418000391446804948469F9180EEB020005941A
:1054280032462B4600F066F807B0F0BD30B5456847
:10543800044685B028462146FFF766FE002856D068
:1054480023680F2B1ED0B3F5107F0ED00B2B4BD13A
:10545800284609F089FA04AD45F80C0D443009F0E6
:10546800D5FC284609F08EFA3EE0E06828B1017ABA
:1054780000290CBF0221012100E00321284602F087
:1054880051F831E0284609F06FFA0090806B06F079
:1054980013F9009A506B06F0FDFD284601F0A4FEB2
:1054A80028B9009BD86B06F0FFF807F093FF009827
:1054B800416CA9B1022006F0E3FD02A802F084F9CC
:1054C800009A506C09F050FA009B0190B3F94820FB
:1054D80093F8403002A907F05DFC01A809F052FAE0
:1054E800684609F04FFA02E0204603F069FA05B071
:1054F80030BD0000F0B587B00C9D109C00950D9D47
:1055080045F0010501951D4D0295119D2035039526
:1055180002F0F6FE054668B30CB9002713E02046F2
:105528000DF042FB013009F093FC07460028F4D047
:1055380009F01AFA06AE214646F8040D0DF0D6FA1F
:10554800304609F01FFA284609F00EFA06AE0F9900
:1055580005900022FFF7D0FD56F8044D0E9B084831
:10556800A4F848300FC86764343484E80F00304624
:1055780009F008FA284607B0F0BD00BF3554000806
:105588000C0000202DE9FF47036A0446002B00F0B9
:10559800DB814068DA688549854D0A38002A18BFDA
:1055A8000D460A2800F2D081DFE810F0B601CE01DE
:1055B800CE01CE01CE010B00CE01CE01CE0181007D
:1055C8007E011E69AA6A002E36D02769A1696B6A16
:1055D800CE1BF01A811A022691FBF6F3FE1806EB91
:1055E800020808F1FF37286906F082FD3146606934
:1055F8003A4607F0F5F962693046511CE26906F04F
:105608007BFF01366869A8F1020806F071FDE069C0
:105618003146424607F0E4F96169E26901313846EA
:1056280006F06AFFA86906F063FD6269E369511C28
:1056380030464246013B37E067696B6AE169F81812
:10564800CF1BFB1A0221461C981A90FBF1F7F6199A
:1056580006EB020808F1FF37286906F049FD3146D4
:1056680020693A4606F048FF22693046511CA26973
:1056780007F0B6F901366869A8F1020806F038FDA6
:10568800A0693146424606F037FF2369A269591CD2
:10569800384607F0A5F9A86906F02AFD2069A2692D
:1056A80001303146013A434606F0E6FE4CE11E68F9
:1056B8001F69721C5610002F7CD0686AA769C0EB5E
:1056C8000709286806F014FD09F1FF3A6169C6EB7D
:1056D8000A0808F101078B1952463846013B07F0C2
:1056E80061F9E1698B1B01335246384607F05AF9D4
:1056F80060692169424607F073F9E0692169424609
:1057080007F06EF96169E269206906F0F5FE6868DC
:1057180006F0EEFC6169A9F1020A8B1938460131DD
:105728005246013B07F03EF9E269931B511E0133D3
:105738003846524607F036F960692169013001316F
:10574800424607F04DF92369E269591C501E42464A
:1057580007F046F920696169E26901300131013ACF
:1057680006F0CAFEAA6820690092EA686169E369DE
:105778000192023002313A46023B07F073FAE868B8
:1057880006F0B6FC0225701E854280F2DD80616954
:10579800E2697318591B931B5A1909F1FF30401B12
:1057A8000131013A06F0A8FE0135ECE71C000020A3
:1057B800480000206B6A606900EB0309286806F05E
:1057C80097FC09F1010A22690AEB060808F1FF377C
:1057D8009119481E3B46514607F0E4F8A269901B10
:1057E8003B465146013007F0DDF82069E269414641
:1057F80006F082FEA069E269414606F07DFE236953
:10580800A269E069591C013A07F0EAF8686806F0ED
:105818006FFC236909F1020A9919481E5A1C51465E
:105828003B4607F0BFF8A269901B01305146013A88
:105838003B4607F0B7F82369E269581C4146013A2C
:1058480006F05AFEE369A1695A1E481E414606F051
:1058580053FEE0692169A26901380231023A07F072
:10586800BFF8A96820690091E968A269E369019114
:1058780002303946023A023B07F0C2F9A86806F03E
:1058880037FC0225701E85425EDA2269B318A269C8
:10589800591B931B5A1909F1010040190131013AAA
:1058A80007F09EF80135EDE71E69E869D6B106F004
:1058B8001FFC276A00267B689E4245DA3968A26980
:1058C800022091FBF0F061694018B968013B71430F
:1058D80091FBF3F3696A511AC018013107F080F897
:1058E8000136E8E706F004FC276A7B689E422BDA5B
:1058F8003A686169022092FBF0F022698018BA6860
:10590800013B724392FBF3F36A6A8A18C018013AA2
:1059180006F0F2FD0136E8E72068012100F0A5F95C
:1059280090B1286A06F0E4FB20696169A269E3691D
:10593800ADF80800ADF80A1002A80021ADF80C2057
:10594800ADF80E3007F0C0F9002004B0BDE8F087CC
:1059580030B58BB0054609F007F80AAB846C43F8FC
:10596800280D684609F00EF800200290099001956C
:1059780001A8A0470BB030BD2DE9F04395B006460D
:1059880008F0F2FF856DD0F85490026DB0F9601000
:105998000190846CC76D408E0792C0F30023C0F35A
:1059A800C00200F0010801A8099306910A9208F0C4
:1059B800E9FF304602A901F004FF0A98A94514BF7F
:1059C800C5EB0903012320B1BDF90E10BDF90A206A
:1059D80003E0BDF90C10BDF908208A1A0699C943DD
:1059E8008A1807990892002909DA4FF0050E591C00
:1059F80092FBFEF29142079101DD0B21079128B13C
:105A0800BDF90A20BDF90E10501C04E0BDF90820AC
:105A1800BDF90C10501C8A1A06990B96013A521AB5
:105A28007D1B554395FBF3F7069BC519E8180F2214
:105A3800BDF90A300C92471EBDF90820BDF90E00C9
:105A480006A91391591C431E501CBDF90C200F9038
:105A5800013AADF8100004A810911293ADF8121095
:105A6800ADF816301192ADF8142001F093FB0BA895
:105A7800A047002001F08EFB0A9B13210C9113B163
:105A88001095129701E00F9511970F98109A119998
:105A9800129BADF8100004A8ADF81220ADF8141050
:105AA800ADF8163001F076FB0BA8A047002001F0F6
:105AB80071FBBDF90A20BDF90E3014200C90BDF918
:105AC8000800511CBDF90C2010910130013B013A2E
